:100000002FC100000C9465170C9490170C94BB172B
:100010000C94E6170C9411180C943C180C94671867
:100020000C9492184EC100004CC100004AC100005F
:1000300048C1000046C1000044C1000042C10000A8
:1000400040C100003EC100003CC100003AC10000B8
:1000500038C1000036C1000034C100000C94C8183B
:1000600030C100000C9420160C9456162AC10000D2
:1000700028C1000026C1000024C1000022C10000E8
:1000800020C100001EC100001CC100001AC10000F8
:1000900018C1000016C1000014C100000C94BA1B66
:1000A00010C100000EC100000CC100000AC1000018
:1000B00008C1000006C1000004C1000002C1000028
:1000C00000C10000FEC00000FCC00000FAC000003B
:1000D000F8C00000F6C00000F4C00000F2C000004C
:1000E000F0C000003F17091711171D172A174B17EB
:1000F0005817FD19001AEF19F319F919371A041ACC
:10010000081A0E1A121A161A1C1A201A241A371A4A
:100110002A1A2E1A321A7E1E831E881E921E9C1EBA
:10012000151FA61EAE1EB61EC01ECA1ED41EE31E7E
:10013000ED1E151FF71E011F0B1F00000A0B020901
:100140000C0D0E0807030401000000000000000071
:10015000000000000000000000000000000000009F
:10016000000000000000121110000000000000005C
:10017000000000000000000000000000000000007F
:1001800001021020200808102040102040800201A9
:10019000020108040201010204081020408080408E
:1001A000201008040201800402018040201008048D
:1001B000020108040201010204081020408001022B
:1001C00004081020408005050505070508080808F3
:1001D000020202020A0A08080404040401010101DF
:1001E00001010101030303030303030304070707DA
:1001F0000C0C0C0C0C0C0C0C02020202060606067F
:10020000060606060B0B0B0B0B0B0B0B000020005E
:100210002300260029002C002F00320000010000DE
:1002200003010601090100002200250028002B001F
:100230002E003100340002010000050108010B010D
:1002400000002100240027002A002D003000330088
:1002500001010000040107010A011B138816721B2B
:1002600011241FBECFEFD1E2DEBFCDBF00E00CBF37
:1002700015E0A0E0B2E0E2E0F8E400E00BBF02C06D
:1002800007900D92A03DB107D9F720E1A0EDB5E0B0
:1002900001C01D92A53EB207E1F712E0C0E6D2E030
:1002A00000E006C022970109FE010BBF0E94721FE9
:1002B000CA35D10780E00807A9F70E94BE180C9440
:1002C000FF239ECEFC01DB0182818C9383811196FA
:1002D0008C931197848112968C9312978581139633
:1002E0008C931397868114968C9314978781159617
:1002F0008C931597808516968C9316978185179603
:100300008C9388E090E00895FC01DB014C9150E073
:1003100060E070E0428353836483758311968C910F
:100320001197582B428353836483758312968C9163
:100330001297682B428353836483758313968C9141
:100340001397782B428353836483758314964C915F
:10035000149750E060E070E04683578360877187B0
:1003600015968C911597582B468357836087718714
:1003700016968C911697682B4683578360877187F2
:1003800017968C91782B468357836087718788E016
:1003900090E0089582E292E0089580E392E008956B
:1003A0006F927F928F929F92AF92BF92CF92DF9285
:1003B000EF92FF920F931F93CF93DF93FC01DB012A
:1003C0008C9190E09383828311962C911197922BBC
:1003D0009383828312964D915D916D917C911597D7
:1003E0005D0186E0A80EB11C8A019B010A5F1F4FC8
:1003F0002F4F3F4F6501CA1ADB0AE12CF12CC016C2
:10040000D106E206F30640F4E501F9905E01CE0163
:100410000297EC01F882EECFED01C40FD51F1D82CB
:10042000CD01059695838483ED01C40FD51FCE8041
:10043000DF80E884F984465F5F4F3D01640E751EDE
:100440008A01222717FD2095322F0C0D1D1D2E1D10
:100450003F1D43018A1A9B0AA12CB12C80169106DC
:10046000A206B30640F4E30169913E01CE01029772
:10047000EC016883EECFC40ED51E9D012C0D3D1DF1
:10048000C9010197EC011882415051094A0F5B1FC5
:1004900057834683E901088119812A813B81D4E091
:1004A000CD0ED11C3D016C0C7D1CA601662757FDAD
:1004B0006095762F400F511F621F731F43018A1AE8
:1004C0009B0AA12CB12C84169506A606B70640F40B
:1004D000E301F9903E01CE010297EC01F882EECFE4
:1004E0000C0D1D1D9D01200F311FC9010197EC014D
:1004F0001882D1E0CD1AD108CA0EDB1ED186C08683
:10050000D90111968C91119712964C91129750E047
:1005100060E070E0BA0155274427582B8C91482B96
:1005200013968C91782B4287538764877587C8010F
:100530000496DF91CF911F910F91FF90EF90DF9084
:10054000CF90BF90AF909F908F907F906F900895C5
:1005500081E592E008958AE692E00895AF92BF9215
:10056000CF92DF92EF92FF921F93CF93DF939C0184
:10057000FB018081D90112968C9381819281A381A4
:10058000B4815B01C5E0AC0EB11CAC01BD014B5F99
:100590005F4F6F4F7F4F6501CE1ADF0AE12CF12CC0
:1005A000C416D506E606F70650F4E501D9905E01BB
:1005B0007E01D2E0ED1AF108E701D882ECCFEF011D
:1005C000C80FD91F1C823496E901FC83EB83059682
:1005D000DF91CF911F91FF90EF90DF90CF90BF9070
:1005E000AF9008958BE892E008958EE992E0089527
:1005F0008AEF94E008958FEB92E008959F92AF9276
:10060000BF92CF92DF92EF92FF920F931F93CF93FF
:10061000DF93CDB7DEB768970FB6F894DEBF0FBE95
:10062000CDBFDC01FB0112961C91129713962C9101
:10063000139714969C91149715968C911597412FAA
:10064000522F692F782F498B5A8B6B8B7C8B9A8812
:10065000AB88BC88CD88DE88EF88F88C1083212F8A
:10066000392DA501B601C70108E00E94911F218321
:10067000212F392DA501B601C70100E10E94911F6C
:100680002283212F392DA501B601C70108E10E945F
:10069000911F2383212F392DA501B601C70100E247
:1006A0000E94911F2483212F392DA501B601C70176
:1006B00008E20E94911F2583212F392DA501B60143
:1006C000C70100E30E94911F2683212F392DA50128
:1006D000B601C70108E30E94911F278316961C915B
:1006E000169717962C91179718969C91189719960C
:1006F0008C911997412F522F692F782F49875A874C
:100700006B877C879A84AB84BC84CD84DE84EF8441
:10071000F8881483212F392DA501B601C70108E0FF
:100720000E94911F2583212F392DA501B601C701F4
:1007300000E10E94911F2683212F392DA501B601CA
:10074000C70108E10E94911F2783212F392DA501A0
:10075000B601C70100E20E94911F2087212F392D89
:10076000A501B601C70108E20E94911F2187212F30
:10077000392DA501B601C70100E30E94911F228710
:10078000212F392DA501B601C70108E30E94911F51
:1007900023871A962C911A971B965C911B971C968F
:1007A0004C911C971D963C91822F952FA42FB32F0F
:1007B00089839A83AB83BC83A22FBA80CB80DC80F1
:1007C000ED80FE801F81B88520873B2DA601B701F3
:1007D000812F9B2F08E00E94911F21872A2F3B2DFC
:1007E000A601B701812F9B2F00E10E94911F228754
:1007F0002A2F3B2DA601B701812F9B2F08E10E94D4
:10080000911F23872A2F3B2DA601B701812F9B2FF4
:1008100000E20E94911F24872A2F3B2DA601B701D9
:10082000812F9B2F08E20E94911F25872A2F3B2DA5
:10083000A601B701812F9B2F00E30E94911F2687FD
:100840002A2F3B2DA601B701812F9B2F08E30E9481
:10085000911F27878CE090E068960FB6F894DEBF72
:100860000FBECDBFDF91CF911F910F91FF90EF9001
:10087000DF90CF90BF90AF909F900895DF92EF925E
:10088000FF920F931F93CF93DF93CDB7DEB7689797
:100890000FB6F894DEBF0FBECDBFFC01DB01119691
:1008A0002C91119730E040E050E060E070E080E093
:1008B00090E008E00E94761F122FD32E7A01129644
:1008C0002C91129730E040E050E060E070E080E072
:1008D00090E000E10E94761F122BD32AE42AF52A29
:1008E0008C91182B13962C91139730E040E050E038
:1008F00060E070E080E090E008E10E94761F122B3B
:10090000D32AE42AF52A14962C91149730E040E07B
:1009100050E060E070E080E090E000E20E94761F2E
:10092000122BD32AE42AF52A15962C91159730E03C
:1009300040E050E060E070E080E090E008E20E947B
:10094000761F122BD32AE42AF52A16962C91169795
:1009500030E040E050E060E070E080E090E000E3F4
:100960000E94761F122BD32AE42AF52A17962C917F
:10097000179730E040E050E060E070E080E090E009
:1009800008E30E94761F122BD32AE42AF52A198B3A
:10099000DA8AEB8AFC8A49895A896B897C89428385
:1009A00053836483758315962C91159730E040E04E
:1009B00050E060E070E080E090E008E00E94761F88
:1009C000122FD32E7A0116962C91169730E040E024
:1009D00050E060E070E080E090E000E10E94761F6F
:1009E000122BD32AE42AF52A14968C911497182BEB
:1009F00017962C91179730E040E050E060E070E0EF
:100A000080E090E008E10E94761F122BD32AE42AAE
:100A1000F52A18962C91189730E040E050E060E0FD
:100A200070E080E090E000E20E94761F122BD32A53
:100A3000E42AF52A19962C91199730E040E050E00D
:100A400060E070E080E090E008E20E94761F122BE8
:100A5000D32AE42AF52A1A962C911A9730E040E01E
:100A600050E060E070E080E090E000E30E94761FDC
:100A7000122BD32AE42AF52A1B962C911B9730E0DF
:100A800040E050E060E070E080E090E008E30E9429
:100A9000761F122BD32AE42AF52A1987DA86EB86E9
:100AA000FC8649855A856B857C854683578360879C
:100AB000718719962C91199730E040E050E060E082
:100AC00070E080E090E008E00E94761F122FD32EA5
:100AD0007A011A962C911A9730E040E050E060E0DD
:100AE00070E080E090E000E10E94761F122BD32A94
:100AF000E42AF52A18968C911897182B1B962C919E
:100B00001B9730E040E050E060E070E080E090E073
:100B100008E10E94761F122BD32AE42AF52A1C969C
:100B20002C911C9730E040E050E060E070E080E005
:100B300090E000E20E94761F122BD32AE42AF52AC5
:100B40001D962C911D9730E040E050E060E070E091
:100B500080E090E008E20E94761F122BD32AE42A5C
:100B6000F52A1E962C911E9730E040E050E060E0A0
:100B700070E080E090E000E30E94761F122BD32A01
:100B8000E42AF52A1F962C9130E040E050E060E026
:100B900070E080E090E008E30E94761F122BD32AD9
:100BA000E42AF52A1983DA82EB82FC8249815A8190
:100BB0006B817C8142875387648775878CE090E0E6
:100BC00068960FB6F894DEBF0FBECDBFDF91CF9110
:100BD0001F910F91FF90EF90DF90089580EE92E0CB
:100BE000089586EF92E00895EF92FF920F931F937E
:100BF000CF93DF938C017B01029600DDEC01B701FE
:100C0000680F791FC8014096F9DC8C0F9D1FDF919A
:100C1000CF911F910F91FF90EF900895EF92FF9267
:100C20000F931F93CF93DF938C017B01029626DEF7
:100C3000EC01B701680F791FC80140961FDE8C0FC9
:100C40009D1FDF91CF911F910F91FF90EF9008951D
:100C500087E193E008958BE293E00895FC01DB01C6
:100C600032812381948185813C9311962C93119735
:100C700012969C93129713968C9313973681278123
:100C80009085818514963C93149715962C9315970F
:100C900016969C93169717968C93179732852385F3
:100CA0009485858518963C93189719962C931997D7
:100CB0001A969C931A971B968C938CE090E008955B
:100CC000FC01DB0111968C91119712964C911297B1
:100CD00050E060E070E0BA0155274427582B8C9112
:100CE000482B13968C911397782B428353836483FC
:100CF000758315968C91159716964C91169750E022
:100D000060E070E0BA0155274427582B14968C9167
:100D10001497482B17968C911797782B46835783F7
:100D20006087718719968C9119971A964C911A972A
:100D300050E060E070E0BA0155274427582B189620
:100D40008C911897482B1B968C91782B4287538750
:100D5000648775878CE090E008958CE493E00895B3
:100D60008DE593E00895CF92DF92EF92FF920F937B
:100D70001F93CF93DF938C01EB01888190E0A0E07B
:100D8000B0E0F80182839383A483B5832981922BF9
:100D900082839383A483B5832A81A22B8283938346
:100DA000A483B5832B81B22B82839383A483B583E1
:100DB0008C8190E0A0E0B0E086839783A087B18724
:100DC0002D81922B86839783A087B1872E81A22BBA
:100DD00086839783A087B1872F81B22B86839783E1
:100DE000A087B187488550E060E070E04287538774
:100DF000648775878985582B4287538764877587F1
:100E00008A85682B42875387648775878B85782B03
:100E100042875387648775878C859D85AE85BF859E
:100E20009E01205F3F4FAC01BD01405F5F4F6F4FA0
:100E30007F4F6901CC1ADD0AE12CF12CC416D506CE
:100E4000E606F70650F4F901D1909F017F01F2E028
:100E5000EF1AF108F701D082ECCF9E01280F391F5D
:100E6000F90117862F96F801D787C6874096DF913C
:100E7000CF911F910F91FF90EF90DF90CF90089549
:100E80008EE793E008958EE893E00895EF92FF9245
:100E90000F931F93CF93DF93EC018B01029663DFD7
:100EA000F801E80FF91F20812A8B21812B8B2281E9
:100EB0002C8B7C0123E0E20EF11CB8016E0D7F1D2E
:100EC000CE014596DBDCE80EF91EB8016E0D7F1DE4
:100ED000CE018396D3DCE80EF91EB8016E0D7F1D9E
:100EE000CE01C196CBDC8E0D9F1DDF91CF911F915E
:100EF0000F91FF90EF9008958FEA93E0089587ECAB
:100F000093E00895FC01DB01328123819481858186
:100F10003C9311962C93119712969C9312971396CB
:100F20008C931397368127819085818514963C9305
:100F3000149715962C93159716969C9316971796BB
:100F40008C931797328523859485858518963C93D5
:100F5000189719962C9319971A969C931A971B9683
:100F60008C938CE090E00895FC01DB0111968C914C
:100F7000119712964C91129750E060E070E0BA0120
:100F800055274427582B8C91482B13968C911397F7
:100F9000782B428353836483758315968C911597C0
:100FA00016964C91169750E060E070E0BA01552714
:100FB0004427582B14968C911497482B17968C9194
:100FC0001797782B468357836087718719968C9182
:100FD00019971A964C911A9750E060E070E0BA01A8
:100FE00055274427582B18968C911897482B1B96F9
:100FF0008C91782B42875387648775878CE090E0CB
:10100000089588EE93E008958DEF93E00895FC0134
:1010100042815381648175814093E20E5093E30EC7
:101020006093E40E7093E50E46815781608571856B
:101030004093DE0E5093DF0E6093E00E7093E10E4E
:1010400082859385A485B5858093DA0E9093DB0E17
:10105000A093DC0EB093DD0E08958E5C974FFC01DB
:10106000808108950F931F93CF93DF93EC018C0140
:101070000A5F1F4FC80124DEEC89FD89C801DF919A
:10108000CF911F910F911994FC018689978908953A
:101090008CE493E008958DE593E008950F931F93FA
:1010A000CF93DF93EC018C010A5F1F4FC801B6DDBF
:1010B000ECA1FDA1C801DF91CF911F910F9119946F
:1010C000FC0186A197A1089587E193E008958BE242
:1010D00093E00895AF92BF92CF92DF92EF92FF928A
:1010E0000F931F93CF93DF93EC017B018A81DB0188
:1010F0008C938B8111968C93EC81FD81DF010D9097
:101100000020E9F7CD0101976C01CE1ADF0AC60174
:10111000A0E0B0E0FB0182839383A483B5836C815C
:101120007D81A601C70106960E94CF22EE81FF8134
:10113000DF010D900020E9F7CD0101975C01AE1AA7
:10114000BF0AF701EC0DFD1D850120E030E00683AC
:101150001783208731879AE0C90ED11C6E817F8169
:10116000A501C7018C0D9D1D0E94CF22CA0CDB1C5E
:10117000E885F985DF010D900020E9F7CD010197A1
:101180005C01AE1ABF0AF701EC0DFD1D850120E0E0
:1011900030E0008311832283338394E0C90ED11C95
:1011A00068857985A501C7018C0D9D1D0E94CF2200
:1011B000AC0CBD1C3A852B859C858D85F701EA0D0D
:1011C000FB1D3083218392838383C5010496DF91C5
:1011D000CF911F910F91FF90EF90DF90CF90BF9034
:1011E000AF9008950F931F93CF93DF93DC01FB0122
:1011F00012968C911297808313968D919C911497DF
:10120000EC0109900020E9F72197C81BD90B8E014A
:1012100020E030E0018312832383348313966D91A1
:101220007C911497AE01CF0105960E94CF22CE018A
:101230000596DF91CF911F910F910895BF92CF92A4
:10124000DF92EF92FF920F931F93CF93DF93EC0106
:101250007B018A81DB018C9311961C921197129667
:101260001C92129713961C92FB01379640E024E0E3
:1012700030E05A81C90104964517E0F4AF81B88582
:1012800024E0429FA00DB11D11246C9111965C9138
:10129000119712963C91129713962C91DF01139798
:1012A0006C9311965C9311963C9320839C014F5F45
:1012B0003496DFCF4985F701E20FF31F4083118297
:1012C0001282138220E03985F701E80FF91F049696
:1012D0002317B0F4AE85BF8534E0239FA00DB11D68
:1012E00011246C9111965C91119712964C91129762
:1012F00013963C9160835183428333832F5FE3CF06
:1013000028892083118212821382B12C2889B21677
:1013100098F54B2D50E0440F551FEB89FC89E40FE5
:10132000F51F0190F081E02DDF010D900020E9F71D
:101330009D01215031096901CE1ADF0AF701E80F3A
:10134000F91F860120E030E000831183228333837C
:101350008C010C5F1F4FEB89FC89E40FF51F608146
:101360007181A601C701800F911F0E94CF22C60183
:10137000800F911FB394CACFDF91CF911F910F912E
:10138000FF90EF90DF90CF90BF9008950F931F9341
:10139000CF93DF93DC01FB0112968C91129780832F
:1013A00013968C911397818314968C911497828352
:1013B00015968C911597838316968C911697848336
:1013C00017968C911797858318968C91189786831A
:1013D00019968C91199787831A968C911A97808702
:1013E0001B968C911B9781871C968C911C978287EA
:1013F0001D968C911D9783871E968D919C911F97AA
:10140000EC0109900020E9F72197C81BD90B8E0148
:1014100020E030E004871587268737871E966D9178
:101420007C911F97AE01CF0140960E94CF22CE0142
:101430004096DF91CF911F910F910895EF92FF9207
:101440000F931F93CF93DF93EC018B0102969EDFE6
:10145000F801E80FF91F2A8920832B8921832C8921
:1014600022837C0123E0E20EF11CB8016E0D7F1D8A
:10147000CE014596C3D8E80EF91EB8016E0D7F1D4A
:10148000CE018396BBD8E80EF91EB8016E0D7F1D04
:10149000CE01C196B3D88E0D9F1DDF91CF911F91C4
:1014A0000F91FF90EF9008954F925F927F928F92ED
:1014B0009F92AF92BF92CF92DF92EF92FF920F93E3
:1014C0001F93CF93DF93EC018B01DB01FC908A81AA
:1014D0008F1550F4B4E0FB9EB00111248F819885E4
:1014E0000E94EB2198878F83FA82F8013796F12CBE
:1014F00044E050E09E012D5F3F4F8A81BA016C5F4E
:101500007F4F6B01F81660F5408150E060E070E0BD
:10151000742F662755274427DF0113978C91482B9A
:1015200011968C91582B11968C91682B4B835C8370
:101530006D837E83A6016F81788584E0F89E600DBF
:10154000711D1124D9018D909D90AD90BC90DB014F
:101550008D929D92AD92BC921397F3943496CDCF19
:10156000F801E40FF51FF08089858F1550F484E0B1
:10157000F89EB00111248E859F850E94EB219F87E4
:101580008E879601F98680E0FE013A969985D8010A
:10159000A20FB31FA9014C5F5F4F6A01891748F57D
:1015A00011969C91119712964C91129750E060E021
:1015B00070E0BA0155274427592B9C91492B13966B
:1015C0009C91792B4A875B876C877D879601AE85D6
:1015D000BF8594E0899FA00DB11D112440815181E8
:1015E000628173814D935D936D937C9313978F5FAD
:1015F000CDCFFC9088898F1550F46F2D70E0660F69
:10160000771F8B899C890E94EB219C8B8B8BC60159
:10161000F88A712C2E0151E1450E511C2889721651
:1016200008F044C0F801E80FF91FC080D180E280C3
:10163000F3800496F801E80FF91FAC01662757FD07
:101640006095762F4C0D5D1D6E1D7F1D9F01201B2B
:10165000310B4901A12CB12C84169506A606B706BC
:1016600038F4B1909F0122503109D901BC92EECFDC
:10167000C80ED91EF801EC0DFD1D319710829C019A
:1016800021503109200F311F3A8B298BC6013B892C
:101690002C89E32FF22FE70DF11DE70DF11DD2018B
:1016A0002D913C91318320837394B8CFDF91CF91FA
:1016B0001F910F91FF90EF90DF90CF90BF90AF9070
:1016C0009F908F907F905F904F900895FC01448190
:1016D0005581668177814093D20E5093D30E6093EB
:1016E000D40E7093D50E828D938DA48DB58D80937D
:1016F000D60E9093D70EA093D80EB093D90E0E9419
:1017000012196093CE0E7093CF0E8093D00E9093EB
:10171000D10E0895CF93DF93AB01EC01AE81BF8171
:10172000ED91FC9111976C817D810190F081E02D0C
:10173000CD01DF91CF911994FC018AE495E091836A
:101740008083128213821482158216821782108679
:10175000118612861386148615860895DC01ED9194
:10176000FD918081ED91FD919081ED91FD916C91C4
:1017700063708E2309F064609F2309F06860EBECCE
:10178000FBE0E60FF11D659565956D936D917D917B
:101790008D919D91099423C01AC012C016C010C02B
:1017A0001EC009C014C013C006C019C009C00DC0B6
:1017B00007C00DC014C062507040804090400BC004
:1017C000615070408040904006C06E5F01C06F5F06
:1017D0007F4F8F4F9F4F9E938E937E936E9308956E
:1017E000CF93DF93EC018B85823020F4F894CE0107
:1017F000B5DF01C0F8946F81788589859A857894E2
:10180000DF91CF9108958091DF109091E010A6CFE5
:101810008091DD109091DE10A1CF8091DB1090912E
:10182000DC109CCF8091D9109091DA1097CF8091E5
:10183000D7109091D81092CF8091D5109091D6105A
:101840008DCF823109F440C078F48230E1F08330EA
:1018500009F044C07093D8106093D71041E050E075
:1018600067E17CE081E02CC08431B9F000F1853182
:10187000A9F57093DA106093D91041E050E062E16D
:101880007CE082E01DC07093D6106093D51041E0DB
:1018900050E06CE17CE080E013C07093DC1060935A
:1018A000DB1041E050E06DE07CE083E009C0709324
:1018B000DE106093DD1041E050E068E07CE084E001
:1018C0000E94F41681E008957093E0106093DF1099
:1018D00041E050E063E07CE085E0F2CF80E00895F5
:1018E0000F931F93CF93DF93EC01062F142F62E029
:1018F000802F0E94381A62E0812F0E94381A202F10
:1019000030E0F901EA53FE4FE491F0E0EE0FFF1FE3
:10191000E45FFD4F4591549159834883F901E058A4
:10192000FE4F24912C83212F30E0F901EA53FE4F22
:10193000E491F0E0EE0FFF1FE45FFD4FA591B4913D
:10194000BB83AA83F901E058FE4F24912D831F82A7
:10195000188619861A8680ED97E00E947819E8812A
:10196000F98190818C81982381E009F480E0EA81FB
:10197000FB8190812D81922309F082608E83BE01CC
:10198000802F5FDF8B87BE01812F5BDF2B8590E08F
:10199000820F911D8B87DF91CF911F910F91089539
:1019A0008F929F92AF92BF92CF92DF92EF92FF926F
:1019B00020E030E040E752E46091D20E7091D30E07
:1019C0008091D40E9091D50E0E9488212DEE38EF93
:1019D0004DE55EE30E9439206B017C0120E030E0A0
:1019E00040E752E46091D60E7091D70E8091D80EE8
:1019F0009091D90E0E9488212EEA37E441E65EE3F9
:101A00000E9488212DEE38EF4DE55EE30E943920DB
:101A10004B015C019B01AC01C701B6010E94D01FC4
:101A20006093240F7093250F8093260F9093270FB8
:101A3000A5019401C701B6010E94D11F6093020F56
:101A40007093030F8093040F9093050FFF90EF9016
:101A5000DF90CF90BF90AF909F908F90089582EFCE
:101A60009EE0BEDEAB01BC0180E29FE00E94171D3C
:101A700086EE9EE0B5DEAB01BC018EEF9EE00E94DB
:101A8000171D80E29FE00E947C1DBC0180E29FE068
:101A90000E94381E8EEF9EE00E947C1DBC018EEFDE
:101AA0009EE00C94381E1092D20E1092D30E10921B
:101AB000D40E1092D50E1092D60E1092D70E109210
:101AC000D80E1092D90E08952091FE0E3091FF0E7F
:101AD0004091000F5091010F6091200F7091210FE4
:101AE0008091220F9091230F0E94D11F20E030E0BF
:101AF00040E05FE30E94882120E030E040E752E4CC
:101B00000E9439202DEE38EF4DE55EE30E948821DA
:101B10006093DC057093DD058093DE059093DF050F
:101B20006AED75E080ED95E0F5CD0F931F93CF93AF
:101B3000DF93CDB7DEB72A970FB6F894DEBF0FBE9E
:101B4000CDBF8C018AE195E09A8389831B821C8238
:101B50001D821E821F82188619861A86D801ED9171
:101B6000FC910190F081E02DAE014F5F5F4F6AE084
:101B700070E0C80119950E941219F80160877187F9
:101B8000828793872A960FB6F894DEBF0FBECDBF2B
:101B9000DF91CF911F910F9108954F925F926F92B5
:101BA0007F928F929F92AF92BF92CF92DF92EF92ED
:101BB000FF920F931F93CF93DF93CDB7DEB72E978E
:101BC0000FB6F894DEBF0FBECDBF8C0186E295E064
:101BD0009A8389831C821B8288ED94E09E838D8387
:101BE00098878F839A8789871B861C861D861E8609
:101BF00058018AE0A80EB11C7801412C24E0522E35
:101C0000612C712C6701ACEECA1AA7EFDA0AD60173
:101C1000ED91FC913097B9F1848195819C838B8300
:101C2000808191819E838D8382819381DC01ED91FE
:101C3000FC910480F581E02D199598878F83D6015A
:101C4000ED91FC9182819381DC01ED91FC91068004
:101C5000F781E02D19959A8789874B865C866D867A
:101C60007E86F80180819181F601A081B18118966C
:101C70006D917C911997DC01ED91FC91AE014F5F64
:101C80005F4FC8011995B2E0EB0EF11CEA14FB049A
:101C900009F0B8CF7801412C94E0592E612C712CB9
:101CA0006701E2EECE1AE7EFDE0AF601A081B1810C
:101CB0001097E1F112968D919C9113979C838B83E1
:101CC00014968D919C9115979E838D83ED91FC9137
:101CD00011970480F581E02DCD01199598878F83A8
:101CE000D6018D919C91DC01ED91FC910680F781EC
:101CF000E02D19959A8789874B865C866D867E864E
:101D0000D801ED91FC9180809180F60180819181D4
:101D1000DC01ED91FC910280F381E02D1995AE017B
:101D20004F5F5F4FBC01C801F4011995F2E0EF0E5F
:101D3000F11CEA14FB0409F0B3CFF801EE5CF74F95
:101D400081E080832E960FB6F894DEBF0FBECDBF24
:101D5000DF91CF911F910F91FF90EF90DF90CF9087
:101D6000BF90AF909F908F907F906F905F904F90BB
:101D700008958F929F92AF92BF92CF92DF92EF928F
:101D8000FF920F931F93CF93DF93CDB7DEB72A97C0
:101D90000FB6F894DEBF0FBECDBF8C015B018AE1A8
:101DA00095E09A8389831B821C821D821E821F827A
:101DB000188619861A860E9412196B017C01F80197
:101DC00080859185A285B385C81AD90AEA0AFB0ADB
:101DD000B501CE0101960E94840138EE832E33E0D6
:101DE000932EA12CB12CC701B601A50194010E942C
:101DF000401F69017A019B01AC018B819C81AD81FF
:101E0000BE818C0D9D1DAE1DBF1D8B839C83AD833C
:101E1000BE8360E472E48FE090E00E941E1FCF80DA
:101E2000D884E984FA84C60ED71EE81EF91ECF8234
:101E3000D886E986FA860E941219CB80DC80ED8074
:101E4000FE80F1E0CF1AD108E108F108A501940164
:101E50000E94401F49015A019B01AC01C818D908D2
:101E6000EA08FB08F801C486D586E686F786CF80A7
:101E7000D884E984FA84F6E3DF1AF5E6EF0AF4EC95
:101E8000FF0A60E472E48FE090E00E941E1FC61A11
:101E9000D70AE80AF90AF801C08AD18AE28AF38AE5
:101EA000B801605F7F4FC8010C960E94A71A0E947C
:101EB0001219F801E95CF74F608371838283938381
:101EC0002A960FB6F894DEBF0FBECDBFDF91CF913B
:101ED0001F910F91FF90EF90DF90CF90BF90AF9048
:101EE0009F908F9008952F923F924F925F926F92A2
:101EF0007F928F929F92AF92BF92CF92DF92EF929A
:101F0000FF920F931F93CF93DF93CDB7DEB7609708
:101F10000FB6F894DEBF0FBECDBF4C010E94121960
:101F20006B017C019401295C374F3E832D83F901BD
:101F300080819181A281B381A7019601281B390B71
:101F40004A0B5B0BDA01C901893F9A42A105B10531
:101F500010F035971082A401485D574F588B4F877A
:101F6000DA018D919C91892B79F0F401E55CF74FB2
:101F700080819181A281B3818C159D05AE05BF053D
:101F800018F4FA01118210823401F0ED6F1AF7EFA4
:101F90007F0A9401245D374F3A832983A4014E5C64
:101FA000574F58874F832C5E3F4F3C872B87435FAB
:101FB0005F4F5E874D878401065D174F160127012D
:101FC00054E1250E311C411C511C540184E1A80E22
:101FD000B11C9401225D374F3C832B83A401455CE7
:101FE000574F5A874987D40112968D919C91139728
:101FF000DC01ED91FC910680F781E02D19959C01A3
:1020000097FD28C1F30180819181820F931F9183F5
:102010008083AF85B8894D915C9147305105E1F4DB
:10202000EB81FC8180819181AC014F5F5F4F5183D7
:102030004083F401E80FF91F248BD8018D919C9106
:10204000119701978D939C93892B09F0BECF28E0BF
:1020500030E0EF85F88986C04115510519F52F3F0D
:10206000310569F481E090E0AF85B8898D939C9348
:10207000E985FA852082318242825382B4CF0E9460
:1020800012196C197D098E099F0966307105810549
:10209000910508F49ACFF401EE5CF74F10828EEFB1
:1020A0009FEFFDC04130510591F42E3F310519F4E9
:1020B00082E090E02EC0EF85F88911821082AF8116
:1020C000B8858C91811181CFC4012FDD8CCF423036
:1020D000510589F4F80131832083AB81BC811D92C5
:1020E0001C9283E090E0EF85F88991838083D3018F
:1020F0002D933C9378CF4330510581F4322F222722
:10210000F80180819181820F931F9183808384E005
:1021100090E0AF85B8898D939C9365CF443051058D
:1021200099F460E071E00E942D1F8F3F910539F412
:1021300085E090E0EF85F8899183808354CFAF8567
:10214000B8891D921C924FCF4530510571F4E98139
:10215000FA813183208386E090E0AF85B8898D9342
:102160009C93F301318320833ECF46305105D1F457
:10217000322F2227A981BA818D919C911197820FCC
:10218000931F8D939C9327E030E0EF85F88931838E
:102190002083D8018D919C91892B09F016CF28E0DE
:1021A00030E0E0CF4830510509F00FCFAF85B88956
:1021B0001D921C9260E071E00E942D1F8F3F9105DF
:1021C00009F003CFA981BA81ED91FC913097A1F478
:1021D000C401ABDCC401E1DCF401ED5CF74FC0826B
:1021E000D182E282F382ED81FE81C082D182E282DD
:1021F000F3828FEF9FEF53C0EA30F10521F4B50170
:10220000C401B7DDF0CEE630F10549F4B5018B85A8
:102210009C854AD981E0AD85BE858C93E4CEEB30B8
:10222000F10521F4EF81F8851082DDCEE555FC4FF4
:10223000EE0FFF1FE80DF91D80819181009709F4D1
:10224000C4CEDC01ED91FC910190F081E02DB5014F
:102250001995C9CEF401EE5CF74F80818823E9F02F
:1022600084010D5C174FF80180819181A281B381B7
:10227000A7019601281B390B4A0B5B0BDA01C90138
:10228000853C9940A105B10540F0C4014EDCD80160
:10229000CD92DD92ED92FC92139780E090E06096F3
:1022A0000FB6F894DEBF0FBECDBFDF91CF911F9167
:1022B0000F91FF90EF90DF90CF90BF90AF909F90E5
:1022C0008F907F906F905F904F903F902F900895E8
:1022D0000F931F93A7D70091CA0E1091CB0E209198
:1022E000CC0E3091CD0E601B710B820B930B6436BC
:1022F00071058105910558F053DBB1DB93D76093ED
:10230000CA0E7093CB0E8093CC0E9093CD0E8AD7CD
:102310000091CE0E1091CF0E2091D00E3091D10EA3
:10232000601B710B820B930B603971408105910525
:1023300008F0B9DB77D70091C60E1091C70E209137
:10234000C80E3091C90E601B710B820B930B643663
:1023500071058105910550F0B7DB64D76093C60E17
:102360007093C70E8093C80E9093C90E81E796E0D4
:102370001F910F91B8CDCF93DF9300D01F921F9282
:10238000CDB7DEB722E335E03A8329836B835D83E3
:102390004C83DC01ED91FC910190F081E02DAE01C8
:1023A0004F5F5F4F67E070E019950F900F900F90AF
:1023B0000F900F90DF91CF910895CF92DF92EF921F
:1023C000FF920F931F93CF93DF93EC017B01643651
:1023D00071053CF0FC01EE5CF74F8081882309F425
:1023E00062C0DA01ED91FC910190F081E02DBE0117
:1023F000655E7B4FCA0119958C016E01BCEECB1A4C
:10240000BBEFDB0A2FEFF60120832EEF31962083FE
:102410003196808331969083890F809531968083A1
:102420003196E0823196F08285E090E020E030E065
:10243000A801495F5F4F8417950750F4FE01E80F2C
:10244000F91FEC5EFB4F6081260F311D0196F3CF23
:10245000085F1F4F4C0F5D1FFA01EC5EFB4F20958C
:1024600020830130F4E01F07B0F47601C7018C1916
:102470009D09801791076CF48A819B81D7016D912A
:102480007D01DC01ED91FC910190F081E02D199529
:10249000EDCFC8010AC04EE154E063E0CE016BDF2E
:1024A0008FEF9FEF02C080E090E0DF91CF911F910E
:1024B0000F91FF90EF90DF90CF90089540917506B7
:1024C00050917606609177067091780626E08091AB
:1024D00073069091740652D310929A0E1092990E30
:1024E00010929C0E10929B0E1092A00E10929F0EB6
:1024F00010929E0E10929D0E80E091EEA0E0B0E052
:102500008093750690937606A0937706B09378062D
:10251000EFE8FEE080E090E021913191232B81F4FF
:10252000FC01EE0FFF1FE157F14F21E336E031834D
:1025300020838C599F4F909334068093330604C0B8
:1025400001968530910541F7EFE8FEE080E090E0EC
:1025500021913191232B81F4FC01EE0FFF1FE157F4
:10256000F14F29E436E0318320838C599F4F9093BB
:102570004C0680934B0604C001968530910541F7C7
:10258000E5E8FEE080E090E021913191232BB1F469
:10259000FC01EE0FFF1FEB57F14F20ED35E03183CB
:1025A000208387599F4F9093D5058093D40581E769
:1025B00096E09093D7058093D60504C001968530A8
:1025C000910511F7E5E8FEE080E090E0219131917E
:1025D000232BB1F4FC01EE0FFF1FEB57F14F28EE58
:1025E00035E03183208387599F4F9093ED05809389
:1025F000EC0581E796E09093EF058093EE0504C02B
:1026000001968530910511F78091A30E811104C0C8
:1026100081E796E068DCF8CF47E554E061E081E7C8
:1026200096E0A9DE86E190E10E94691B65E070E01A
:1026300080E090E026C682E69FE07ED884E59FE0B9
:102640007BD886E49FE078D820E130E041E150E09B
:1026500067E170E080E29FE00E94E81C2CE030E03F
:102660004DE050E065E170E08EEF9EE00E94E81CD6
:1026700042E063E082EF9EE033D947E066E086EE19
:102680009EE02ED980910E0290910F02A09110022F
:10269000B09111028093E20E9093E30EA093E40EAA
:1026A000B093E50E80910A0290910B02A0910C026A
:1026B000B0910D028093DE0E9093DF0EA093E00E9A
:1026C000B093E10E8091420F9091430FA091440F7F
:1026D000B091450F8093DA0E9093DB0EA093DC0E41
:1026E000B093DD0E82E995E09093720680937106B7
:1026F00080E79FE0909374068093730680E091EEEC
:10270000A0E0B0E08093750690937606A0937706DC
:10271000B09378061092A30E8EE395E09093B20EDC
:102720008093B10E1092B30E1092B90E1092B80EA3
:102730001092BA0E1092C00E1092BF0E1092C10EDF
:102740001092C50E1092C40E1092860E1092850E35
:102750001092880E1092870E10928A0E1092890E97
:1027600010928C0E10928B0E10928E0E10928D0E77
:102770001092900E10928F0E1092920E1092910E57
:102780001092940E1092930E1092960E1092950E37
:102790001092980E1092970EE5E8F6E011928AE0FA
:1027A000E538F807D9F7E5E8FAE011928EE0E53868
:1027B000F807D9F78CE995E090934A06809349068B
:1027C00086E595E09093500680934F0681E596E06C
:1027D0000E949C0B8FE596E00E949C0B86E69BE096
:1027E00090936E0680936D0681E090E09093700662
:1027F00080936F062FE834E030934E0620934D0609
:1028000028EA35E0309332062093310622E635E09F
:1028100030933806209337061092390610923A0604
:1028200010923B0610923C0610923D0610923E0616
:1028300010923F06109240061092410610924206F6
:10284000109243061092440627E038E03093460683
:1028500020934506909348068093470687E994E0C5
:1028600090933606809335068AE795E09093F305BA
:102870008093F2058EE695E09093F5058093F4053C
:102880001092F6051092F7051092F8051092F905CE
:102890001092FA051092FB051092FC051092FD05AE
:1028A0001092FE051092FF0510920006109201068C
:1028B00088ED94E09093030680930206109204063C
:1028C000109205061092060687E096E00E949C0B87
:1028D00085E196E00E949C0B83E296E00E949C0BAF
:1028E0008BE994E09093E9058093E80582EF95E009
:1028F0009093EB058093EA051092F1051092F00594
:1029000086E895E09093DB058093DA051092DC056C
:102910001092DD051092DE051092DF051092E005A1
:102920001092E1051092E2051092E3051092E40581
:102930001092E5051092E6051092E70583EA94E00F
:102940009093D1058093D0058AED95E09093D305BF
:102950008093D2051092D9051092D8050895FC01F4
:10296000818D228D90E0805C9F4F821B91098F7337
:1029700099270895FC01918D828D981731F0828DF1
:10298000E80FF11D858D90E008958FEF9FEF08957A
:10299000FC01918D828D981761F0828DDF01A80F67
:1029A000B11D5D968C91928D9F5F9F73928F90E089
:1029B00008958FEF9FEF08958FE796E1892B39F007
:1029C00080E090E0892B19F09AD1811125C080E038
:1029D00090E0892B41F080E090E0892B21F00E946B
:1029E000000081111CC080E090E0892B41F080E064
:1029F00090E0892B21F00E940000811113C080E03B
:102A000090E0892BA1F080E090E0892B81F00E947A
:102A1000000081110AC008950E940000D8CF0E94D2
:102A20000000E1CF0E940000EACF0C94000008955E
:102A3000FC01848DDF01A80FB11DA35ABF4F2C915B
:102A4000848D90E001968F739927848FA689B7892A
:102A50002C93A089B1898C9180648C93938D848D03
:102A6000981306C00288F389E02D80818F7D8083D2
:102A70000895CF93DF93EC01888D8823C1F0EA8914
:102A8000FB89808185FD05C0A889B9898C9186FD67
:102A90000EC00FB607FCF5CF808185FFF2CFA88965
:102AA000B9898C9185FFEDCFCE01C2DFE8CFDF91F0
:102AB000CF910895CF92DF92FF920F931F93CF9300
:102AC000DF931F92CDB7DEB76C0181E0D601589637
:102AD0008C9358975B969C915B975C968C915C97D6
:102AE000981307C05096ED91FC915197808185FD18
:102AF0002DC0F601038D10E00F5F1F4F0F731127DC
:102B0000F02EF601848DF81210C00FB607FCF9CF35
:102B1000D6015096ED91FC915197808185FFF1CFC0
:102B2000C601698385DF6981ECCF838DE80FF11DD4
:102B3000E35AFF4F6083D6015B960C935B975296E6
:102B4000ED91FC915397808180620CC0D60156961E
:102B5000ED91FC91579760835096ED91FC915197C0
:102B600080818064808381E090E00F90DF91CF913D
:102B70001F910F91FF90DF90CF900895BF92CF9259
:102B8000DF92EF92FF92CF93DF93EC016A017B011A
:102B9000B22EE889F98982E08083411581EE5807D9
:102BA00061057105A1F060E079E08DE390E0A70197
:102BB00096010E94401F2150310941095109569543
:102BC000479537952795211580E1380798F0E889D2
:102BD000F989108260E874E88EE190E0A70196011F
:102BE0000E94401F215031094109510956954795CE
:102BF00037952795EC85FD853083EE85FF8520830D
:102C0000188EEC89FD89B082EA89FB898081806118
:102C10008083EA89FB89808188608083EA89FB89D7
:102C2000808180688083EA89FB8980818F7D8083B1
:102C3000DF91CF91FF90EF90DF90CF90BF900895FC
:102C40001F920F920FB60F9211240BB60F922F9373
:102C50008F939F93EF93FF93E091800FF091810FFB
:102C60008081E091860FF091870F82FD12C09081E4
:102C70008091890F8F5F8F7320918A0F821751F097
:102C8000E091890FF0E0E059F04F958F8093890F24
:102C900001C08081FF91EF919F918F912F910F90B3
:102CA0000BBE0F900FBE0F901F9018951F920F92A2
:102CB0000FB60F9211240BB60F922F933F934F93A1
:102CC0005F936F937F938F939F93AF93BF93EF9394
:102CD000FF9380E79FE0ACDEFF91EF91BF91AF9152
:102CE0009F918F917F916F915F914F913F912F9124
:102CF0000F900BBE0F900FBE0F901F90189580E79E
:102D00009FE02DDE21E0892B09F420E0822F089539
:102D10001092730F1092720F88EE93E0A0E0B0E073
:102D20008093740F9093750FA093760FB093770FE5
:102D300084EB95E09093710F8093700F85EC90E099
:102D400090937D0F80937C0F84EC90E090937F0FA5
:102D500080937E0F80EC90E09093810F8093800FA2
:102D600081EC90E09093830F8093820F82EC90E04F
:102D70009093850F8093840F86EC90E09093870F5B
:102D80008093860F1092890F10928A0F10928B0FEA
:102D900010928C0F0895CF92DF92EF92FF920F93D3
:102DA0001F93CF93DF937C016A01EB0100E010E0F9
:102DB0000C151D0571F06991D701ED91FC91019001
:102DC000F081E02DC7011995892B19F00F5F1F4F76
:102DD000EFCFC801DF91CF911F910F91FF90EF903E
:102DE000DF90CF9008950895883008F06DC0E82FE7
:102DF000F0E0EE0FFF1FEE5EFD4F7183608390E009
:102E0000FC013197E730F10590F5EE58FF4F0C9437
:102E1000621F809169008C7F842B80936900E89AFF
:102E2000089580916900440F551F440F551F837FFB
:102E3000842B80936900E99A08958091690074E079
:102E4000440F551F7A95E1F78F7C842B809369009E
:102E5000EA9A08958091690066E0440F551F6A95CB
:102E6000E1F78F73842B80936900EB9A089580912A
:102E70006A008C7F842B80936A00EC9A089580917D
:102E80006A00440F551F440F551F837F842B809386
:102E90006A00ED9A089580916A0024E0440F551F5E
:102EA0002A95E1F78F7C842B80936A00EE9A08952F
:102EB00080916A0096E0440F551F9A95E1F78F7351
:102EC000842B80936A00EF9A08951F920F920FB699
:102ED0000F9211240BB60F922F933F934F935F9352
:102EE0006F937F938F939F93AF93BF93EF93FF93D2
:102EF000E0911602F09117021995FF91EF91BF91A1
:102F0000AF919F918F917F916F915F914F913F9181
:102F10002F910F900BBE0F900FBE0F901F90189522
:102F20001F920F920FB60F9211240BB60F922F9390
:102F30003F934F935F936F937F938F939F93AF9341
:102F4000BF93EF93FF93E0911802F0911902199546
:102F5000FF91EF91BF91AF919F918F917F916F9171
:102F60005F914F913F912F910F900BBE0F900FBE2D
:102F70000F901F9018951F920F920FB60F92112469
:102F80000BB60F922F933F934F935F936F937F9363
:102F90008F939F93AF93BF93EF93FF93E0911A02A8
:102FA000F0911B021995FF91EF91BF91AF919F9105
:102FB0008F917F916F915F914F913F912F910F90E2
:102FC0000BBE0F900FBE0F901F9018951F920F927F
:102FD0000FB60F9211240BB60F922F933F934F937E
:102FE0005F936F937F938F939F93AF93BF93EF9371
:102FF000FF93E0911C02F0911D021995FF91EF9152
:10300000BF91AF919F918F917F916F915F914F9100
:103010003F912F910F900BBE0F900FBE0F901F90FE
:1030200018951F920F920FB60F9211240BB60F92A4
:103030002F933F934F935F936F937F938F939F93C0
:10304000AF93BF93EF93FF93E0911202F0911302BD
:103050001995FF91EF91BF91AF919F918F917F91C2
:103060006F915F914F913F912F910F900BBE0F90F9
:103070000FBE0F901F9018951F920F920FB60F92D0
:1030800011240BB60F922F933F934F935F936F933F
:103090007F938F939F93AF93BF93EF93FF93E091B1
:1030A0001402F09115021995FF91EF91BF91AF9124
:1030B0009F918F917F916F915F914F913F912F9150
:1030C0000F900BBE0F900FBE0F901F9018951F9280
:1030D0000F920FB60F9211240BB60F922F933F93BE
:1030E0004F935F936F937F938F939F93AF93BF9310
:1030F000EF93FF93E0911E02F0911F021995FF914B
:10310000EF91BF91AF919F918F917F916F915F915F
:103110004F913F912F910F900BBE0F900FBE0F90CC
:103120001F9018951F920F920FB60F9211240BB695
:103130000F922F933F934F935F936F937F938F9350
:103140009F93AF93BF93EF93FF93E0912002F09191
:1031500021021995FF91EF91BF91AF919F918F91AE
:103160007F916F915F914F913F912F910F900BBE87
:103170000F900FBE0F901F9018950895C4D0FDDFDB
:103180009DD9CCEDD4E1A4D82097E9F315DCFBCF91
:103190001F920F920FB60F9211242F933F938F938C
:1031A0009F93AF93BF9380910E1090910F10A091B9
:1031B0001010B091111030910D1023E0230F2D3716
:1031C00020F40196A11DB11D05C026E8230F02962B
:1031D000A11DB11D20930D1080930E1090930F1020
:1031E000A0931010B09311108091121090911310B1
:1031F000A0911410B09115100196A11DB11D8093DE
:10320000121090931310A0931410B0931510BF9147
:10321000AF919F918F913F912F910F900FBE0F9083
:103220001F9018952FB7F89460910E1070910F10A1
:1032300080911010909111102FBF08953FB7F8940E
:103240008091121090911310A0911410B09115104C
:1032500026B5A89B05C02F3F19F00196A11DB11DF1
:103260003FBF6627782F892F9A2F620F711D811D0E
:10327000911D42E0660F771F881F991F4A95D1F76D
:1032800008958F929F92AF92BF92CF92DF92EF926A
:10329000FF926B017C01D2DF4B015C01C114D104B0
:1032A000E104F104E1F052D1C9DF681979098A0912
:1032B0009B09683E73408105910580F321E0C21AA5
:1032C000D108E108F10888EE880E83E0981EA11C61
:1032D000B11CC114D104E104F10431F7DFCFFF9038
:1032E000EF90DF90CF90BF90AF909F908F90089518
:1032F0008230910538F0880F991F880F991F059724
:103300000197F1F70895789484B5826084BD84B5FF
:10331000816084BD85B5826085BD85B5816085BDD0
:10332000EEE6F0E0808181608083E1E8F0E01082E9
:10333000808182608083808181608083E0E8F0E02A
:10334000808181608083E1EBF0E080818460808314
:10335000E0EBF0E0808181608083E1E9F0E0808152
:1033600082608083808181608083E0E9F0E08081F9
:1033700081608083E1EAF0E08081826080838081E7
:1033800081608083E0EAF0E0808181608083E1E217
:10339000F1E0808182608083808181608083E0E2CF
:1033A000F1E0808181608083EAE7F0E080818460E1
:1033B000808380818260808380818160808380813E
:1033C000806880831092C100089590E0FC013197DD
:1033D000E231F10508F04BC0E758FF4F73C580910B
:1033E00080008F7703C0809180008F7D8093800064
:1033F000089580918000877FF9CF84B58F7702C0D0
:1034000084B58F7D84BD08958091B0008F7703C00F
:103410008091B0008F7D8093B000089580919000DE
:103420008F7707C0809190008F7D03C080919000BE
:10343000877F8093900008958091A0008F7707C0C8
:103440008091A0008F7D03C08091A000877F809332
:10345000A0000895809120018F7707C080912001FE
:103460008F7D03C080912001877F80932001089584
:10347000CF93DF9390E0FC01E058FE4F2491FC01D4
:10348000EA53FE4F8491882349F190E0880F991FF9
:10349000FC01E05CFD4FA591B4918A5D9D4FFC015C
:1034A000C591D4919FB7611108C0F8948C91209573
:1034B00082238C93888182230AC0623051F4F8946D
:1034C0008C91322F309583238C938881822B888333
:1034D00004C0F8948C91822B8C939FBFDF91CF9185
:1034E00008950F931F93CF93DF931F92CDB7DEB74D
:1034F000282F30E0F901E65CFE4F8491F901E05895
:10350000FE4F1491F901EA53FE4F04910023C1F0DC
:10351000882319F0698359DF6981E02FF0E0EE0F0D
:10352000FF1FEA5DFD4FA591B4919FB7F8948C9170
:10353000611103C01095812301C0812B8C939FBF23
:103540000F90DF91CF911F910F9108950895CF9221
:10355000DF92EF92FF920F931F93CF93DF938C0133
:10356000EB01688179818A819B8120E03AEC4AE90C
:103570005BE386D4F801C080D180E280F380C20E84
:10358000D31EE41EF51EC082D182E282F3826883DC
:1035900079838A839B83DF91CF911F910F91FF9055
:1035A000EF90DF90CF9008958091451090E02091AA
:1035B0004610821B91090895209146108091451074
:1035C000281750F4E22FF0E0E95BFF4E808190E095
:1035D0002F5F2093461008958FEF9FEF0895E0919D
:1035E000461080914510E81730F4F0E0E95BFF4E9B
:1035F000808190E008958FEF9FEF08950895CF9216
:10360000DF92EF92FF920F931F93CF93DF937C0192
:10361000CB018A0120912210222389F0EB016B015A
:10362000C40ED51ECC15DD0561F06991D701ED9171
:10363000FC910190F081E02DC7011995F3CF642F23
:1036400070D0C801DF91CF911F910F91FF90EF9043
:10365000DF90CF900895CF93DF931F92CDB7DEB761
:103660006983209122102223D1F02091231020324F
:1036700040F021E030E0FC013383228380E090E0E1
:1036800014C080912410E82FF0E0EB5DFF4E99818B
:1036900090838F5F809324108093231004C061E097
:1036A000CE0101963ED081E090E00F90DF91CF9166
:1036B0000895FC011382128248EE53E060E070E04E
:1036C000448355836683778384EC95E0918380837C
:1036D00008951092461010924510109224101092E6
:1036E000231003C086E190E1E4CF1092D41081E072
:1036F0008093D2101092D11061E084E1F2DE61E09B
:1037000085E1EFDEE9EBF0E080818E7F80838081D0
:103710008D7F808388E48093B80085E48093BC002B
:103720000895613298F42091D410243089F4609384
:103730008910FC018BE890E1DC012A2F281B261759
:1037400018F421912D93F9CF80E0089581E0089538
:1037500082E0089585ED8093BC008091BC0084FDDB
:10376000FCCF1092D410089585EC8093BC00109289
:10377000D41008951F920F920FB60F9211240BB61A
:103780000F922F933F934F935F936F937F938F93FA
:103790009F93AF93BF93EF93FF938091B900887F7E
:1037A000803609F49DC070F5883209F45CC090F44D
:1037B000803109F455C038F4882309F4F3C0883007
:1037C00009F44EC0F2C0883109F44DC0803209F4CA
:1037D0005EC0EBC0803409F469C050F4803309F452
:1037E00056C0883309F0E1C080936710BDDFDDC0AB
:1037F000803509F44FC0883509F45DC0883409F07C
:10380000D4C0D2C0883909F4C3C0A8F4883709F4F9
:1038100067C038F4883609F463C0803709F460C0A3
:10382000C4C0883809F4B4C0803909F45FC0803856
:1038300009F0BBC05BC0803B09F482C038F4803A19
:1038400009F466C0883A09F47BC0AFC0803C09F433
:10385000A3C0883C09F4A0C0883B09F486C0A5C079
:103860008091D31010C09091AC108091AB1098173C
:1038700070F5E091AC1081E08E0F8093AC10F0E019
:10388000E355FF4E80818093BB0085EC82C080931E
:1038900067108AC0E091AC1081E08E0F8093AC106D
:1038A0008091BB00F0E0E355FF4E80839091AC1017
:1038B0008091AB106AC0E091AC1081E08E0F8093D4
:1038C000AC108091BB00F0E0E355FF4E8083809107
:1038D000D210811169C081E08093D11084EA5DC06B
:1038E00083E08093D41010926810CFCF809168103D
:1038F000803208F04DC0E091681081E08E0F809317
:1039000068108091BB00F0E0E759FF4E8083BDCF87
:103910002BDF80916810803230F4E0916810F0E085
:10392000E759FF4E10826091681070E0E091CD1071
:10393000F091CE1089E690E119951092681035C08B
:1039400084E08093D41010928A1010928910E09134
:10395000CF10F091D010199580918910811105C078
:1039600081E08093891010928B10E0918A1081E0A1
:103970008E0F80938A10F0E0E557FF4E8081809390
:10398000BB0090918A1080918910981708F47DCF20
:1039900085E88093BC0009C085EC8093BC00109240
:1039A000D41003C010926710D5DEFF91EF91BF9144
:1039B000AF919F918F917F916F915F914F913F91C7
:1039C0002F910F900BBE0F900FBE0F901F90189568
:1039D000CF92DF92FF920F931F93CF93DF9300D08C
:1039E000CDB7DEB76C01F62E042F122F61E08F2DBC
:1039F0003B835A8379833CDD61E0802F39DD61E0D0
:103A0000812F36DDF601F0867981718702875A8130
:103A1000538714873B8135870F900F900F90DF916C
:103A2000CF911F910F91FF90DF90CF9008954F920B
:103A30005F926F927F928F929F92AF92BF92CF923E
:103A4000DF92EF92FF92CF93DF93EC014A015B018B
:103A5000E9DB6B017C018E899F89A88DB98DA50159
:103A60009401281B390B4A0B5B0BCA01B9019CD38B
:103A70002B013C016091060270910702882777FDB7
:103A80008095982F91D39B01AC01C301B201F1D273
:103A90002B013C018A8D9B8DAC8DBD8DA7019601BC
:103AA000281B390B4A0B5B0BCA01B9017BD320E001
:103AB00030E64AE657E4DDD29B01AC01C301B20116
:103AC000D8D2688379838A839B838E8A9F8AA88EC3
:103AD000B98ECA8EDB8EEC8EFD8EDF91CF91FF907A
:103AE000EF90DF90CF90BF90AF909F908F907F909E
:103AF0006F905F904F9008958F929F92AF92BF9278
:103B0000CF92DF92EF92FF920F931F93CF93DF93A9
:103B1000EC010C811D81CE80DF80E0900802F090E6
:103B20000902662777276E197F09882777FD809518
:103B3000982F3AD34B015C019B01AC01B801C6013F
:103B400094D287FD0FC0B701882777FD8095982F05
:103B50002BD34B015C019B01AC01B801C601D4D34E
:103B6000181614F484016501288139814A815B812A
:103B7000B801C60115D26B017C018A889B88AC888C
:103B8000BD8820E030E0A90170D2882351F0A70160
:103B90009601C501B40105D26A8B7B8B8C8B9D8B02
:103BA00004C01A8A1B8A1C8A1D8A2091E20E309159
:103BB000E30E4091E40E5091E50EC701B601A8D383
:103BC0004B015C012A893B894C895D896091DA0E41
:103BD0007091DB0E8091DC0E9091DD0E99D39B01EC
:103BE000AC01C501B401DDD14B015C012E853F85DF
:103BF00048895989C701B601D3D12091DE0E309191
:103C0000DF0E4091E00E5091E10E82D39B01AC019A
:103C1000C501B401C6D14B015C01CE86DF86E88ABE
:103C2000F98A20E030E04FE753EC1FD287FD0EC049
:103C300020E030E04FE753E4C501B40165D3181626
:103C400044F0C501B4017DD2CB0105C081E09FEFF6
:103C500002C08FEF90E0DF91CF911F910F91FF9005
:103C6000EF90DF90CF90BF90AF909F908F9008958E
:103C70000F931F93CF93DF93EC018B01161617065A
:103C80002CF461E08A852DDC60E007C061157105C8
:103C900031F060E08A8525DC61E08C8522DCB801AA
:103CA00017FF03C07195619571098885DF91CF91E8
:103CB0001F910F9100C01F93CF93DF93182FEB013B
:103CC00061E0D6DB209711F460E004C0CF3FD1055E
:103CD00031F461E0812FDF91CF911F9102CCE12F70
:103CE000F0E0E65CFE4F449150E0FA013197E2319A
:103CF000F10508F09AC0E557FF4FE4C084B580682D
:103D000084BDC7BD97C084B5806284BDC8BD92C064
:103D100080918000806880938000D0938900C09358
:103D2000880088C080918000806280938000D0935A
:103D30008B00C0938A007EC0809180008860809351
:103D40008000D0938D00C0938C0074C08091B0002F
:103D500080688093B000C093B3006CC08091B000C5
:103D600080628093B000C093B40064C080919000E2
:103D7000806880939000D0939900C09398005AC0B7
:103D800080919000806280939000D0939B00C093BC
:103D90009A0050C080919000886080939000D093EA
:103DA0009D00C0939C0046C08091A00080688093D5
:103DB000A0008091A0008F7B8093A000D093A900E9
:103DC000C093A80037C08091A00080628093A000BB
:103DD000D093AB00C093AA002DC08091A000886052
:103DE0008093A000D093AD00C093AC0023C080911D
:103DF0002001806880932001D0932901C09328017D
:103E000019C080912001806280932001D0932B0102
:103E1000C0932A010FC08091200188608093200107
:103E2000D0932D01C0932C0105C0C038D1050CF0F2
:103E300050CF4ACFDF91CF911F910895DB018F932F
:103E40009F9346D0BF91AF91A29F800D911DA39FDC
:103E5000900DB29F900D1124089597FB072E16F434
:103E6000009406D077FD08D078D007FC05D03EF44A
:103E7000909581959F4F0895709561957F4F089516
:103E8000A1E21A2EAA1BBB1BFD010DC0AA1FBB1F5E
:103E9000EE1FFF1FA217B307E407F50720F0A21BD0
:103EA000B30BE40BF50B661F771F881F991F1A943D
:103EB00069F760957095809590959B01AC01BD0167
:103EC000CF010895EE0FFF1F0590F491E02D199496
:103ED00058D0A59F900DB49F900DA49F800D911D6B
:103EE000112408950790F691E02D19940F9308304E
:103EF00090F0982F872F762F652F542F432F322F36
:103F000022270850F4CF220F331F441F551F661F6E
:103F1000771F881F991F0A95B2F70F91089597FB95
:103F200010F8169400080F93083098F00850232FCB
:103F3000342F452F562F672F782F892F902DF4CFB0
:103F400005949795879577956795579547953795F4
:103F500027950A95AAF70F910895AA1BBB1B51E15B
:103F600007C0AA1FBB1FA617B70710F0A61BB70BE9
:103F7000881F991F5A95A9F780959095BC01CD018E
:103F80000895A29FB001B39FC001A39F700D811D32
:103F90001124911DB29F700D811D1124911D089552
:103FA0005058BB27AA270ED075C166D130F06BD10F
:103FB00020F031F49F3F11F41EF45BC10EF4E09544
:103FC000E7FB51C1E92F77D180F3BA176207730776
:103FD0008407950718F071F49EF58FC10EF4E095F3
:103FE0000B2EBA2FA02D0B01B90190010C01CA01B3
:103FF000A0011124FF27591B99F0593F50F4503E5E
:1040000068F11A16F040A22F232F342F4427585F4F
:10401000F3CF469537952795A795F0405395C9F767
:104020007EF41F16BA0B620B730B840BBAF091501F
:10403000A1F0FF0FBB1F661F771F881FC2F70EC0BE
:10404000BA0F621F731F841F48F487957795679591
:10405000B795F7959E3F08F0B3CF9395880F08F07A
:104060009927EE0F979587950895D9D008F481E0A8
:1040700008950CD00FC107D140F0FED030F021F4EC
:104080005F3F19F0F0C0511139C1F3C014D198F35A
:104090009923C9F35523B1F3951B550BBB27AA27C9
:1040A00062177307840738F09F5F5F4F220F331F3B
:1040B000441FAA1FA9F333D00E2E3AF0E0E830D007
:1040C00091505040E695001CCAF729D0FE2F27D00A
:1040D000660F771F881FBB1F261737074807AB07D8
:1040E000B0E809F0BB0B802DBF01FF2793585F4F4D
:1040F0002AF09E3F510568F0B6C000C15F3FECF367
:10410000983EDCF3869577956795B795F7959F5F11
:10411000C9F7880F911D9695879597F90895E1E065
:10412000660F771F881FBB1F621773078407BA07C4
:1041300020F0621B730B840BBA0BEE1F88F7E0951F
:10414000089504D06894B111D9C00895BCD088F006
:104150009F5790F0B92F9927B751A0F0D1F0660F73
:10416000771F881F991F1AF0BA95C9F712C0B1308E
:1041700081F0C3D0B1E00895C0C0672F782F8827A1
:10418000B85F39F0B93FCCF3869577956795B395CD
:10419000D9F73EF490958095709561957F4F8F4F3C
:1041A0009F4F0895E89409C097FB3EF49095809541
:1041B000709561957F4F8F4F9F4F9923A9F0F92FED
:1041C00096E9BB279395F695879577956795B7956B
:1041D000F111F8CFFAF4BB0F11F460FF1BC06F5F51
:1041E0007F4F8F4F9F4F16C0882311F096E911C063
:1041F000772321F09EE8872F762F05C0662371F084
:1042000096E8862F70E060E02AF09A95660F771F97
:10421000881FDAF7880F9695879597F90895990F73
:104220000008550FAA0BE0E8FEEF16161706E80780
:10423000F907C0F012161306E407F50798F0621BA1
:10424000730B840B950B39F40A2661F0232B242B76
:10425000252B21F408950A2609F4A140A6958FEF95
:10426000811D811D089597F99F6780E870E060E0E7
:1042700008959FEF80EC089500240A9416161706FF
:1042800018060906089500240A9412161306140647
:1042900005060895092E0394000C11F4882352F0AA
:1042A000BB0F40F4BF2B11F460FF04C06F5F7F4F62
:1042B0008F4F9F4F089557FD9058440F551F59F049
:1042C0005F3F71F04795880F97FB991F61F09F3F03
:1042D00079F087950895121613061406551FF2CF2C
:1042E0004695F1DF08C0161617061806991FF1CF7C
:1042F00086957105610508940895E894BB276627A3
:104300007727CB0197F908958ADF08F48FEF089596
:104310000BD0C0CFB1DF28F0B6DF18F0952309F03D
:10432000A2CFA7CF1124EACFC6DFA0F3959FD1F388
:10433000950F50E0551F629FF001729FBB27F00D53
:10434000B11D639FAA27F00DB11DAA1F649F6627A8
:10435000B00DA11D661F829F2227B00DA11D621FF7
:10436000739FB00DA11D621F839FA00D611D221FB1
:10437000749F3327A00D611D231F849F600D211D95
:10438000822F762F6A2F11249F5750408AF0E1F038
:1043900088234AF0EE0FFF1FBB1F661F771F881F81
:1043A00091505040A9F79E3F510570F05CCFA6CFC9
:1043B0005F3FECF3983EDCF3869577956795B7956C
:1043C000F795E7959F5FC1F7FE2B880F911D969596
:1043D000879597F908956F927F928F929F92AF92EF
:1043E000BF92CF92DF92EF92FF920F931F93CF93E2
:1043F000DF93EC01CB01209779F4DF91CF911F91EE
:104400000F91FF90EF90DF90CF90BF90AF909F9073
:104410008F907F906F90CCC0FE01E60FF71F9E013A
:1044200022503109E217F30708F4A8C0D9010D9111
:104430001C91119706171707B0F00530110508F405
:104440009BC0A801445051094617570708F494C06F
:1044500002501109061B170B019311936D937C9366
:10446000CF013ED189C05B01A01AB10A4E01800E76
:10447000911EA091E310B091E410612C712C60E0CA
:1044800070E0109709F449C0A815B905C9F5ED9079
:10449000FC901197670142E0C40ED11CCA14DB04E2
:1044A00078F147018A189B08640142E0C40ED11CD0
:1044B0001296BC9012971396AC91B5E0CB16D1042E
:1044C00040F0B282A38391828082D9018D939C9324
:1044D00009C00E5F1F4F0E0D1F1DF90111830083D0
:1044E000EB2DFA2F6115710531F0DB011396FC936A
:1044F000EE93129741C0F093E410E093E3103CC0B8
:104500006D917C9111976616770608F43B01BD0109
:1045100012960D90BC91A02DB4CF6091E1107091D6
:10452000E21068157905E9F468167906D0F440912F
:104530000002509101024115510541F44DB75EB79B
:104540006091040270910502461B570BE417F507B2
:10455000A8F4F093E210E093E110F90191838083D5
:104560000BC026D07C01009749F0A801BE0117D0EE
:10457000CE01B6D0C70104C0CE0102C080E090E0F9
:10458000DF91CF911F910F91FF90EF90DF90CF902F
:10459000BF90AF909F908F907F906F900895FB0198
:1045A000DC0102C001900D9241505040D8F70895AF
:1045B000CF93DF938230910510F482E090E0E09198
:1045C000E310F091E41020E030E0A0E0B0E030979C
:1045D00039F14081518148175907B8F048175907F8
:1045E00071F482819381109729F013969C938E9396
:1045F00012972CC09093E4108093E31027C02115EC
:10460000310531F04217530718F0A901DB0101C051
:10461000EF019A01BD01DF010280F381E02DD7CFC8
:1046200021153105F9F0281B390B2430310580F4B0
:104630008A819B816115710521F0FB01938382833F
:1046400004C09093E4108093E310FE01329644C0BE
:10465000FE01E20FF31F81939193225031093983B8
:1046600028833AC02091E1103091E210232B41F4CD
:1046700020910202309103023093E2102093E11066
:1046800020910002309101022115310541F42DB72E
:104690003EB74091040250910502241B350BE09176
:1046A000E110F091E210E217F307A0F42E1B3F0B8C
:1046B0002817390778F0AC014E5F5F4F2417350794
:1046C00048F04E0F5F1F5093E2104093E11081932A
:1046D000919302C0E0E0F0E0CF01DF91CF91089527
:1046E000CF93DF93009709F487C0FC0132971382C0
:1046F0001282C091E310D091E410209781F42081C0
:104700003181280F391F8091E1109091E2108217BA
:10471000930779F5F093E210E093E1106DC0DE01AC
:1047200020E030E0AE17BF0750F412964D915C9137
:1047300013979D014115510509F1DA01F3CFB383B8
:10474000A28340815181840F951F8A179B0771F4C2
:104750008D919C911197840F951F02969183808370
:1047600012968D919C911397938382832115310525
:1047700029F4F093E410E093E3103EC0D9011396BE
:10478000FC93EE9312974D915D91A40FB51FEA171C
:10479000FB0779F480819181840F951F0296D901DE
:1047A00011969C938E938281938113969C938E9302
:1047B0001297E0E0F0E08A819B81009719F0FE01FA
:1047C000EC01F9CFCE01029628813981820F931F27
:1047D0002091E1103091E2102817390769F43097E1
:1047E00029F41092E4101092E31002C01382128296
:1047F000D093E210C093E110DF91CF910895F89427
:02480000FFCFE8
:104802000000E510200072064A010000803FCDCC76
:10481200CC3EF316F316F316F316F316F316F3164D
:10482200F3167374645F6D7367732F54696D65005B
:104832006364373136366337346335353263333147
:104842003166626363326665356137626332383975
:1048520000726F7373657269616C5F6D7367732F3A
:10486200546F706963496E666F00306164353166FA
:104872003838666334343839326638633130363822
:104882003430373736343630303500726F737365F3
:104892007269616C5F6D7367732F4C6F67003131A2
:1048A20061626437333163323539333332363163DF
:1048B2006436313833626431326436323935003924
:1048C200663065393862646136353938313938369F
:1048D200646466353361666137613430653439004A
:1048E20067656F6D657472795F6D7367732F566557
:1048F20063746F7233003461383432623635663431
:104902003133303834646332623130666234383481
:104912006561376631370067656F6D657472795FFF
:104922006D7367732F547769737400396631393543
:104932006638383132343666646661323739386403
:104942003164336565626361383461006C696E6F2E
:104952005F7069642F6C696E6F5049440061353530
:1049620039646631383762646636336634323664A7
:1049720035663330346236623238626234007374C0
:10498200645F6D7367732F486561646572003231CD
:104992003736646563616563626365373861626394
:1049A2003362393665663034396661626564007235
:1049B2006F735F61726475696E6F5F6D7367732F7A
:1049C200526177496D750033626330656133373701
:1049D2003831646135316164343161363836386674
:1049E20066363266616139006C696E6F5F6D73673E
:1049F200732F56656C6F6369746965730030656502
:104A020038616434636237383039626532643561E3
:104A120030613736333532666561383661004D654F
:104A220073736167652066726F6D20646576696372
:104A3200652064726F707065643A206D657373618E
:104A42006765206C6172676572207468616E2062AE
:104A520075666665722E004C494E4F4241534520A1
:104A6200434F4E4E454354454400456E636F646563
:104A720072204C6566743A20256C6400456E636F43
:104A82006465722052696768743A20256C64006319
:104A92006D645F76656C00706964007261775F694E
:104AA2006D75007261775F76656C00416363656C5A
:104AB20065726F6D65746572204E4F5420464F5576
:104AC2004E4421004779726F73636F7065204E4FB9
:104AD2005420464F554E4421004D61676E65746FF8
:104AE2006D65746572204E4F5420464F554E4421D9
:104AF20000696D755F6C696E6B00726F73736572BE
:104B020069616C5F6D7367732F526571756573743C
:104B1200506172616D000000000062018401CA01EF
:104B2200CD01000000006A08D001A802AB0200001B
:104B32000000F208AE02F202F502000000001E09B7
:104B4200540AF802FB0200000000FE023E04EE05D9
:104B5200F10500000000F4050E0628062B060000F1
:104B620000002E066006AD06B00600000000C60971
:104B7200B30640074307000000001E0A46077C07F1
:104B82007F07000000008207B40701080408000044
:104B92000000DD11730F2D08000000004E086008B0
:104BA20064086708000000003208440848084B08FF
:104BB200000000005A15CB16AF14C814BA143915E8
:104BC200000000002B1BFF1AD41ADC1AEF1AFE1A7F
:00000001FF
